{
  "abi": [
    {
      "inputs": [],
      "name": "check1",
      "outputs": [
        {
          "internalType": "bool",
          "name": "",
          "type": "bool"
        }
      ],
      "stateMutability": "view",
      "type": "function"
    },
    {
      "inputs": [
        {
          "internalType": "address",
          "name": "asset",
          "type": "address"
        }
      ],
      "name": "checkReserveInvariants",
      "outputs": [],
      "stateMutability": "view",
      "type": "function"
    },
    {
      "inputs": [
        {
          "internalType": "address",
          "name": "user",
          "type": "address"
        }
      ],
      "name": "checkUserHealth",
      "outputs": [
        {
          "internalType": "uint256",
          "name": "totalCollateralBase",
          "type": "uint256"
        },
        {
          "internalType": "uint256",
          "name": "totalDebtBase",
          "type": "uint256"
        },
        {
          "internalType": "uint256",
          "name": "availableBorrowsBase",
          "type": "uint256"
        },
        {
          "internalType": "uint256",
          "name": "currentLiquidationThreshold",
          "type": "uint256"
        },
        {
          "internalType": "uint256",
          "name": "ltv",
          "type": "uint256"
        },
        {
          "internalType": "uint256",
          "name": "healthFactor",
          "type": "uint256"
        },
        {
          "internalType": "bool",
          "name": "belowLtv",
          "type": "bool"
        },
        {
          "internalType": "bool",
          "name": "belowLiquidationThreshold",
          "type": "bool"
        }
      ],
      "stateMutability": "view",
      "type": "function"
    },
    {
      "inputs": [],
      "name": "runChecks",
      "outputs": [
        {
          "internalType": "bool",
          "name": "",
          "type": "bool"
        }
      ],
      "stateMutability": "view",
      "type": "function"
    }
  ],
  "bytecode": {
    "object": "0x6080604052600080546001600160a01b03199081167387870bca3f3fd6335c3f4ce8392d69350b4fa4e21790915560018054909116737b4eb56e7cd4b454ba8ff71e4518426369a138a317905534801561005857600080fd5b50610f97806100686000396000f3fe608060405234801561001057600080fd5b506004361061004c5760003560e01c80631b5e8b93146100515780634dd472de1461006e57806394200de814610083578063cb0f7c301461008a575b600080fd5b6100596100dc565b60405190151581526020015b60405180910390f35b61008161007c36600461096d565b61027c565b005b6001610059565b61009d61009836600461096d565b610798565b604080519889526020890197909752958701949094526060860192909252608085015260a0840152151560c0830152151560e082015261010001610065565b600080600160009054906101000a90046001600160a01b03166001600160a01b031663b316ff896040518163ffffffff1660e01b8152600401600060405180830381865afa158015610132573d6000803e3d6000fd5b505050506040513d6000823e601f3d908101601f1916820160405261015a9190810190610a35565b905061019360405180604001604052806014815260200173746f6b656e446174612e6c656e6774683a20257360601b8152508251610847565b60005b8151811015610277576101c2604051806040016040528060018152602001606960f81b81525082610847565b6101e3604051806060016040528060288152602001610f3a60289139610890565b61023f6040518060400160405280601d81526020017f746f6b656e3a202020202020202020202020202020202020202020257300000081525083838151811061022e5761022e610b8f565b6020026020010151600001516108d6565b61026582828151811061025457610254610b8f565b60200260200101516020015161027c565b8061026f81610bbb565b915050610196565b505090565b6001546040516335ea6a7560e01b81526001600160a01b03838116600483015260009283929116906335ea6a759060240161018060405180830381865afa1580156102cb573d6000803e3d6000fd5b505050506040513d601f19601f820116820180604052508101906102ef9190610be8565b50506001546040516334924edb60e21b81529a9c50989a506000996001600160a01b039099169863d2493b6c985061033497508d96506004019450610bd49350505050565b606060405180830381865afa158015610351573d6000803e3d6000fd5b505050506040513d601f19601f820116820180604052508101906103759190610c85565b5050600154604051634d44ac4f60e01b81526001600160a01b03878116600483015292935060009290911690634d44ac4f90602401602060405180830381865afa1580156103c7573d6000803e3d6000fd5b505050506040513d601f19601f820116820180604052508101906103eb9190610cd2565b6040516370a0823160e01b81526001600160a01b0384811660048301529192506000918716906370a0823190602401602060405180830381865afa158015610437573d6000803e3d6000fd5b505050506040513d601f19601f8201168201806040525081019061045b9190610cd2565b905060006104698383610ceb565b9050600085856001600160a01b03166318160ddd6040518163ffffffff1660e01b8152600401602060405180830381865afa1580156104ac573d6000803e3d6000fd5b505050506040513d601f19601f820116820180604052508101906104d09190610cd2565b6104da9190610ceb565b905061057c6040518060400160405280601d81526020017f746f74616c537570706c793a2020202020202020202020202020202573000000815250866001600160a01b03166318160ddd6040518163ffffffff1660e01b8152600401602060405180830381865afa158015610553573d6000803e3d6000fd5b505050506040513d601f19601f820116820180604052508101906105779190610cd2565b610847565b6105bb6040518060400160405280601d81526020017f756e6261636b656420202020202020202020202020202020202020257300000081525088610847565b6105fa6040518060400160405280601d81526020017f6173736574733a2020202020202020202020202020202020202020257300000081525083610847565b6106396040518060400160405280601d81526020017f6c696162696c69746965733a202020202020202020202020202020257300000081525082610847565b60408051808201909152601d81527f617373657473202d206c696162696c69746965733a2020202020202573000000602082015261067b906105778385610cfe565b6000886001600160a01b031663313ce5676040518163ffffffff1660e01b8152600401602060405180830381865afa1580156106bb573d6000803e3d6000fd5b505050506040513d601f19601f820116820180604052508101906106df9190610d11565b6106ea90600a610e18565b6106f48385610cfe565b61070690670de0b6b3a7640000610e27565b6107109190610e3e565b905061076c6040518060400160405280601d81526020017f646966663a202020202020202020202020202020202020202020202573000000815250670de0b6b3a7640000836127106107629190610e27565b6105779190610e3e565b61078d604051806060016040528060288152602001610f3a60289139610890565b505050505050505050565b60008054604051632fe4a15f60e21b81526001600160a01b0384811660048301528392839283928392839283928392169063bf92857c9060240160c060405180830381865afa1580156107ef573d6000803e3d6000fd5b505050506040513d601f19601f820116820180604052508101906108139190610e60565b949c50929a5090985096509450925061082b8461091b565b831091506108388561091b565b83109050919395975091939597565b61088c828260405160240161085d929190610ed6565b60408051601f198184030181529190526020810180516001600160e01b0316632d839cb360e21b179052610933565b5050565b6108d3816040516024016108a49190610ef8565b60408051601f198184030181529190526020810180516001600160e01b031663104c13eb60e21b179052610933565b50565b61088c82826040516024016108ec929190610f0b565b60408051601f198184030181529190526020810180516001600160e01b0316634b5c427760e01b179052610933565b600061092d82655af3107a4000610e27565b92915050565b6108d38180516a636f6e736f6c652e6c6f67602083016000808483855afa5050505050565b6001600160a01b03811681146108d357600080fd5b60006020828403121561097f57600080fd5b813561098a81610958565b9392505050565b634e487b7160e01b600052604160045260246000fd5b6040805190810167ffffffffffffffff811182821017156109ca576109ca610991565b60405290565b604051601f8201601f1916810167ffffffffffffffff811182821017156109f9576109f9610991565b604052919050565b60005b83811015610a1c578181015183820152602001610a04565b50506000910152565b8051610a3081610958565b919050565b60006020808385031215610a4857600080fd5b825167ffffffffffffffff80821115610a6057600080fd5b818501915085601f830112610a7457600080fd5b815181811115610a8657610a86610991565b8060051b610a958582016109d0565b9182528381018501918581019089841115610aaf57600080fd5b86860192505b83831015610b8257825185811115610acd5760008081fd5b86016040601f19828d038101821315610ae65760008081fd5b610aee6109a7565b8a84015189811115610b005760008081fd5b8401603f81018f13610b125760008081fd5b8b8101518a811115610b2657610b26610991565b610b368d85601f840116016109d0565b93508084528f85828401011115610b4d5760008081fd5b610b5c818e8601878501610a01565b5050818152610b6c838501610a25565b818c015285525050509186019190860190610ab5565b9998505050505050505050565b634e487b7160e01b600052603260045260246000fd5b634e487b7160e01b600052601160045260246000fd5b600060018201610bcd57610bcd610ba5565b5060010190565b6001600160a01b0391909116815260200190565b6000806000806000806000806000806000806101808d8f031215610c0b57600080fd5b8c519b5060208d01519a5060408d0151995060608d0151985060808d0151975060a08d0151965060c08d0151955060e08d015194506101008d015193506101208d015192506101408d015191506101608d015164ffffffffff81168114610c7157600080fd5b809150509295989b509295989b509295989b565b600080600060608486031215610c9a57600080fd5b8351610ca581610958565b6020850151909350610cb681610958565b6040850151909250610cc781610958565b809150509250925092565b600060208284031215610ce457600080fd5b5051919050565b8082018082111561092d5761092d610ba5565b8181038181111561092d5761092d610ba5565b600060208284031215610d2357600080fd5b815160ff8116811461098a57600080fd5b600181815b80851115610d6f578160001904821115610d5557610d55610ba5565b80851615610d6257918102915b93841c9390800290610d39565b509250929050565b600082610d865750600161092d565b81610d935750600061092d565b8160018114610da95760028114610db357610dcf565b600191505061092d565b60ff841115610dc457610dc4610ba5565b50506001821b61092d565b5060208310610133831016604e8410600b8410161715610df2575081810a61092d565b610dfc8383610d34565b8060001904821115610e1057610e10610ba5565b029392505050565b600061098a60ff841683610d77565b808202811582820484141761092d5761092d610ba5565b600082610e5b57634e487b7160e01b600052601260045260246000fd5b500490565b60008060008060008060c08789031215610e7957600080fd5b865195506020870151945060408701519350606087015192506080870151915060a087015190509295509295509295565b60008151808452610ec2816020860160208601610a01565b601f01601f19169290920160200192915050565b604081526000610ee96040830185610eaa565b90508260208301529392505050565b60208152600061098a6020830184610eaa565b604081526000610f1e6040830185610eaa565b8281036020840152610f308185610eaa565b9594505050505056fe2d2d2d2d2d2d2d2d2d2d2d2d2d2d2d2d2d2d2d2d2d2d2d2d2d2d2d2d2d2d2d2d2d2d2d2d2d2d2d2da2646970667358221220baa233609a5ee4e8b2ab6cd9e2a70f67ae3bba0e10cc88a049a0471018dce6c064736f6c63430008140033",
    "linkReferences": {}
  },
  "methodIdentifiers": {
    "check1()": "1b5e8b93",
    "checkReserveInvariants(address)": "4dd472de",
    "checkUserHealth(address)": "cb0f7c30",
    "runChecks()": "94200de8"
  },
  "id": 25
}