{
    "abi": [
        {
            "type": "constructor",
            "inputs": [
                {
                    "name": "pool_",
                    "type": "address",
                    "internalType": "address"
                },
                {
                    "name": "dataProvider_",
                    "type": "address",
                    "internalType": "address"
                }
            ],
            "stateMutability": "nonpayable"
        },
        {
            "type": "function",
            "name": "getAllReservesAssetLiability",
            "inputs": [],
            "outputs": [
                {
                    "name": "reserveData",
                    "type": "tuple[]",
                    "internalType": "struct SparkLendHealthChecker.ReserveAssetLiability[]",
                    "components": [
                        {
                            "name": "reserve",
                            "type": "address",
                            "internalType": "address"
                        },
                        {
                            "name": "assets",
                            "type": "uint256",
                            "internalType": "uint256"
                        },
                        {
                            "name": "liabilities",
                            "type": "uint256",
                            "internalType": "uint256"
                        }
                    ]
                }
            ],
            "stateMutability": "view"
        },
        {
            "type": "function",
            "name": "getReserveAssetLiability",
            "inputs": [
                {
                    "name": "asset",
                    "type": "address",
                    "internalType": "address"
                }
            ],
            "outputs": [
                {
                    "name": "assets",
                    "type": "uint256",
                    "internalType": "uint256"
                },
                {
                    "name": "liabilities",
                    "type": "uint256",
                    "internalType": "uint256"
                }
            ],
            "stateMutability": "view"
        },
        {
            "type": "function",
            "name": "getUserHealth",
            "inputs": [
                {
                    "name": "user",
                    "type": "address",
                    "internalType": "address"
                }
            ],
            "outputs": [
                {
                    "name": "totalCollateralBase",
                    "type": "uint256",
                    "internalType": "uint256"
                },
                {
                    "name": "totalDebtBase",
                    "type": "uint256",
                    "internalType": "uint256"
                },
                {
                    "name": "availableBorrowsBase",
                    "type": "uint256",
                    "internalType": "uint256"
                },
                {
                    "name": "currentLiquidationThreshold",
                    "type": "uint256",
                    "internalType": "uint256"
                },
                {
                    "name": "ltv",
                    "type": "uint256",
                    "internalType": "uint256"
                },
                {
                    "name": "healthFactor",
                    "type": "uint256",
                    "internalType": "uint256"
                },
                {
                    "name": "belowLiquidationThreshold",
                    "type": "bool",
                    "internalType": "bool"
                }
            ],
            "stateMutability": "view"
        },
        {
            "type": "function",
            "name": "runChecks",
            "inputs": [],
            "outputs": [
                {
                    "name": "",
                    "type": "bool",
                    "internalType": "bool"
                }
            ],
            "stateMutability": "pure"
        }
    ],
    "bytecode": {
        "object": "0x608060405234801561001057600080fd5b50604051610d59380380610d5983398101604081905261002f9161007c565b600080546001600160a01b039384166001600160a01b031991821617909155600180549290931691161790556100af565b80516001600160a01b038116811461007757600080fd5b919050565b6000806040838503121561008f57600080fd5b61009883610060565b91506100a660208401610060565b90509250929050565b610c9b806100be6000396000f3fe608060405234801561001057600080fd5b506004361061004c5760003560e01c806394200de814610051578063d91c99b814610065578063dc5ba0f11461007a578063f9d6c03b146100a2575b600080fd5b604051600181526020015b60405180910390f35b61006d6100ec565b60405161005c91906106c8565b61008d610088366004610742565b610282565b6040805192835260208301919091520161005c565b6100b56100b0366004610742565b61062c565b604080519788526020880196909652948601939093526060850191909152608084015260a0830152151560c082015260e00161005c565b60606000600160009054906101000a90046001600160a01b03166001600160a01b031663b316ff896040518163ffffffff1660e01b8152600401600060405180830381865afa158015610143573d6000803e3d6000fd5b505050506040513d6000823e601f3d908101601f1916820160405261016b91908101906107e6565b9050805167ffffffffffffffff81111561018757610187610766565b6040519080825280602002602001820160405280156101e557816020015b6101d2604051806060016040528060006001600160a01b0316815260200160008152602001600081525090565b8152602001906001900390816101a55790505b50915060005b815181101561027d57600082828151811061020857610208610957565b602002602001015160200151905060008061022283610282565b915091506040518060600160405280846001600160a01b031681526020018381526020018281525086858151811061025c5761025c610957565b6020026020010181905250505050808061027590610983565b9150506101eb565b505090565b6001546040516335ea6a7560e01b81526001600160a01b03838116600483015260009283928392909116906335ea6a759060240161018060405180830381865afa1580156102d4573d6000803e3d6000fd5b505050506040513d601f19601f820116820180604052508101906102f891906109b0565b50506001546040516334924edb60e21b8152999b5060009a506001600160a01b03169863d2493b6c985061033997508e9650600401945061099c9350505050565b606060405180830381865afa158015610356573d6000803e3d6000fd5b505050506040513d601f19601f8201168201806040525081019061037a9190610a4d565b5050600154604051634d44ac4f60e01b81526001600160a01b03888116600483015292935060009290911690634d44ac4f90602401602060405180830381865afa1580156103cc573d6000803e3d6000fd5b505050506040513d601f19601f820116820180604052508101906103f09190610a9a565b6040516370a0823160e01b81526001600160a01b0384811660048301529192506000918816906370a0823190602401602060405180830381865afa15801561043c573d6000803e3d6000fd5b505050506040513d601f19601f820116820180604052508101906104609190610a9a565b9050600084846001600160a01b031663b1bf962d6040518163ffffffff1660e01b8152600401602060405180830381865afa1580156104a3573d6000803e3d6000fd5b505050506040513d601f19601f820116820180604052508101906104c79190610a9a565b6104d19190610ab3565b90506104dd8383610ab3565b60005460405163d15e005360e01b81526001600160a01b038b811660048301529299506b033b2e3c9fd0803ce8000000929091169063d15e005390602401602060405180830381865afa158015610538573d6000803e3d6000fd5b505050506040513d601f19601f8201168201806040525081019061055c9190610a9a565b6105669083610acc565b6105709190610ae3565b95506000886001600160a01b031663313ce5676040518163ffffffff1660e01b8152600401602060405180830381865afa1580156105b2573d6000803e3d6000fd5b505050506040513d601f19601f820116820180604052508101906105d69190610b05565b6105e190600a610c0c565b9050806105f689670de0b6b3a7640000610acc565b6106009190610ae3565b97508061061588670de0b6b3a7640000610acc565b61061f9190610ae3565b9650505050505050915091565b60008054604051632fe4a15f60e21b81526001600160a01b0384811660048301528392839283928392839283929091169063bf92857c9060240160c060405180830381865afa158015610683573d6000803e3d6000fd5b505050506040513d601f19601f820116820180604052508101906106a79190610c1b565b949d939c50919a5098509650909450670de0b6b3a764000085109350915050565b602080825282518282018190526000919060409081850190868401855b8281101561071d57815180516001600160a01b03168552868101518786015285015185850152606090930192908501906001016106e5565b5091979650505050505050565b6001600160a01b038116811461073f57600080fd5b50565b60006020828403121561075457600080fd5b813561075f8161072a565b9392505050565b634e487b7160e01b600052604160045260246000fd5b6040805190810167ffffffffffffffff8111828210171561079f5761079f610766565b60405290565b604051601f8201601f1916810167ffffffffffffffff811182821017156107ce576107ce610766565b604052919050565b80516107e18161072a565b919050565b600060208083850312156107f957600080fd5b825167ffffffffffffffff8082111561081157600080fd5b818501915085601f83011261082557600080fd5b81518181111561083757610837610766565b8060051b6108468582016107a5565b918252838101850191858101908984111561086057600080fd5b86860192505b8383101561094a5782518581111561087e5760008081fd5b86016040601f19828d0381018213156108975760008081fd5b61089f61077c565b8a840151898111156108b15760008081fd5b8401603f81018f136108c35760008081fd5b8b8101518a8111156108d7576108d7610766565b6108e78d85601f840116016107a5565b93508084528f858284010111156108fe5760008081fd5b60005b8181101561091c578281018601518582018f01528d01610901565b5060009084018d0152508181526109348484016107d6565b818c015285525050509186019190860190610866565b9998505050505050505050565b634e487b7160e01b600052603260045260246000fd5b634e487b7160e01b600052601160045260246000fd5b6000600182016109955761099561096d565b5060010190565b6001600160a01b0391909116815260200190565b6000806000806000806000806000806000806101808d8f0312156109d357600080fd5b8c519b5060208d01519a5060408d0151995060608d0151985060808d0151975060a08d0151965060c08d0151955060e08d015194506101008d015193506101208d015192506101408d015191506101608d015164ffffffffff81168114610a3957600080fd5b809150509295989b509295989b509295989b565b600080600060608486031215610a6257600080fd5b8351610a6d8161072a565b6020850151909350610a7e8161072a565b6040850151909250610a8f8161072a565b809150509250925092565b600060208284031215610aac57600080fd5b5051919050565b80820180821115610ac657610ac661096d565b92915050565b8082028115828204841417610ac657610ac661096d565b600082610b0057634e487b7160e01b600052601260045260246000fd5b500490565b600060208284031215610b1757600080fd5b815160ff8116811461075f57600080fd5b600181815b80851115610b63578160001904821115610b4957610b4961096d565b80851615610b5657918102915b93841c9390800290610b2d565b509250929050565b600082610b7a57506001610ac6565b81610b8757506000610ac6565b8160018114610b9d5760028114610ba757610bc3565b6001915050610ac6565b60ff841115610bb857610bb861096d565b50506001821b610ac6565b5060208310610133831016604e8410600b8410161715610be6575081810a610ac6565b610bf08383610b28565b8060001904821115610c0457610c0461096d565b029392505050565b600061075f60ff841683610b6b565b60008060008060008060c08789031215610c3457600080fd5b865195506020870151945060408701519350606087015192506080870151915060a08701519050929550929550929556fea26469706673582212201ba1badca1decad6863373ccafa8c61311dc86696d0c8eb68e43b329e05ca9c664736f6c63430008140033",
        "linkReferences": {}
    },
    "methodIdentifiers": {
        "getAllReservesAssetLiability()": "d91c99b8",
        "getReserveAssetLiability(address)": "dc5ba0f1",
        "getUserHealth(address)": "f9d6c03b",
        "runChecks()": "94200de8"
    },
    "id": 34
}